{
  "contractName": "CampaignFactory",
  "abi": [
    {
      "constant": true,
      "inputs": [
        {
          "name": "",
          "type": "uint256"
        }
      ],
      "name": "deployedCampaigns",
      "outputs": [
        {
          "name": "",
          "type": "address"
        }
      ],
      "payable": false,
      "stateMutability": "view",
      "type": "function"
    },
    {
      "constant": false,
      "inputs": [
        {
          "name": "_minimumContribution",
          "type": "uint256"
        }
      ],
      "name": "createCampaign",
      "outputs": [],
      "payable": false,
      "stateMutability": "nonpayable",
      "type": "function"
    },
    {
      "constant": true,
      "inputs": [],
      "name": "getAllCampaigns",
      "outputs": [
        {
          "name": "",
          "type": "address[]"
        }
      ],
      "payable": false,
      "stateMutability": "view",
      "type": "function"
    }
  ],
  "bytecode": "0x608060405234801561001057600080fd5b50610f59806100206000396000f300608060405260043610610057576000357c0100000000000000000000000000000000000000000000000000000000900463ffffffff168063339d50a51461005c57806386cdf604146100c9578063a3303a7514610135575b600080fd5b34801561006857600080fd5b5061008760048036038101908080359060200190929190505050610162565b604051808273ffffffffffffffffffffffffffffffffffffffff1673ffffffffffffffffffffffffffffffffffffffff16815260200191505060405180910390f35b3480156100d557600080fd5b506100de6101a0565b6040518080602001828103825283818151815260200191508051906020019060200280838360005b83811015610121578082015181840152602081019050610106565b505050509050019250505060405180910390f35b34801561014157600080fd5b506101606004803603810190808035906020019092919050505061022e565b005b60008181548110151561017157fe5b906000526020600020016000915054906101000a900473ffffffffffffffffffffffffffffffffffffffff1681565b6060600080548060200260200160405190810160405280929190818152602001828054801561022457602002820191906000526020600020905b8160009054906101000a900473ffffffffffffffffffffffffffffffffffffffff1673ffffffffffffffffffffffffffffffffffffffff16815260200190600101908083116101da575b5050505050905090565b6000813361023a610300565b808381526020018273ffffffffffffffffffffffffffffffffffffffff1673ffffffffffffffffffffffffffffffffffffffff16815260200192505050604051809103906000f080158015610293573d6000803e3d6000fd5b50905060008190806001815401808255809150509060018203906000526020600020016000909192909190916101000a81548173ffffffffffffffffffffffffffffffffffffffff021916908373ffffffffffffffffffffffffffffffffffffffff160217905550505050565b604051610c1d80610311833901905600608060405234801561001057600080fd5b50604051604080610c1d833981018060405281019080805190602001909291908051906020019092919050505081600181905550806000806101000a81548173ffffffffffffffffffffffffffffffffffffffff021916908373ffffffffffffffffffffffffffffffffffffffff1602179055505050610b88806100956000396000f3006080604052600436106100a4576000357c0100000000000000000000000000000000000000000000000000000000900463ffffffff16806303441006146100a95780630a144391146100d65780634051ddac14610131578063481c6a75146101a457806381d12c58146101fb57806382fde093146102ed5780638a9cfd5514610318578063937e09b1146103ab578063d7bb99ba146103d6578063d7d1bbdb146103e0575b600080fd5b3480156100b557600080fd5b506100d46004803603810190808035906020019092919050505061040d565b005b3480156100e257600080fd5b50610117600480360381019080803573ffffffffffffffffffffffffffffffffffffffff169060200190929190505050610557565b604051808215151515815260200191505060405180910390f35b34801561013d57600080fd5b50610146610577565b604051808681526020018581526020018481526020018381526020018273ffffffffffffffffffffffffffffffffffffffff1673ffffffffffffffffffffffffffffffffffffffff1681526020019550505050505060405180910390f35b3480156101b057600080fd5b506101b96105d6565b604051808273ffffffffffffffffffffffffffffffffffffffff1673ffffffffffffffffffffffffffffffffffffffff16815260200191505060405180910390f35b34801561020757600080fd5b50610226600480360381019080803590602001909291905050506105fb565b60405180806020018681526020018573ffffffffffffffffffffffffffffffffffffffff1673ffffffffffffffffffffffffffffffffffffffff16815260200184151515158152602001838152602001828103825287818151815260200191508051906020019080838360005b838110156102ae578082015181840152602081019050610293565b50505050905090810190601f1680156102db5780820380516001836020036101000a031916815260200191505b50965050505050505060405180910390f35b3480156102f957600080fd5b50610302610705565b6040518082815260200191505060405180910390f35b34801561032457600080fd5b506103a9600480360381019080803590602001908201803590602001908080601f016020809104026020016040519081016040528093929190818152602001838380828437820191505050505050919291929080359060200190929190803573ffffffffffffffffffffffffffffffffffffffff16906020019092919050505061070b565b005b3480156103b757600080fd5b506103c06108a7565b6040518082815260200191505060405180910390f35b6103de6108ad565b005b3480156103ec57600080fd5b5061040b60048036038101908080359060200190929190505050610929565b005b60008060009054906101000a900473ffffffffffffffffffffffffffffffffffffffff1673ffffffffffffffffffffffffffffffffffffffff163373ffffffffffffffffffffffffffffffffffffffff1614151561046a57600080fd5b60038281548110151561047957fe5b90600052602060002090600502019050600260045481151561049757fe5b0481600401541115156104a957600080fd5b8060020160149054906101000a900460ff161515156104c757600080fd5b60018160020160146101000a81548160ff0219169083151502179055508060020160009054906101000a900473ffffffffffffffffffffffffffffffffffffffff1673ffffffffffffffffffffffffffffffffffffffff166108fc82600101549081150290604051600060405180830381858888f19350505050158015610552573d6000803e3d6000fd5b505050565b60026020528060005260406000206000915054906101000a900460ff1681565b60008060008060006001543073ffffffffffffffffffffffffffffffffffffffff16316003805490506004546000809054906101000a900473ffffffffffffffffffffffffffffffffffffffff16945094509450945094509091929394565b6000809054906101000a900473ffffffffffffffffffffffffffffffffffffffff1681565b60038181548110151561060a57fe5b9060005260206000209060050201600091509050806000018054600181600116156101000203166002900480601f0160208091040260200160405190810160405280929190818152602001828054600181600116156101000203166002900480156106b65780601f1061068b576101008083540402835291602001916106b6565b820191906000526020600020905b81548152906001019060200180831161069957829003601f168201915b5050505050908060010154908060020160009054906101000a900473ffffffffffffffffffffffffffffffffffffffff16908060020160149054906101000a900460ff16908060040154905085565b60045481565b610713610a6f565b6000809054906101000a900473ffffffffffffffffffffffffffffffffffffffff1673ffffffffffffffffffffffffffffffffffffffff163373ffffffffffffffffffffffffffffffffffffffff1614151561076e57600080fd5b3073ffffffffffffffffffffffffffffffffffffffff1631831115151561079457600080fd5b60a0604051908101604052808581526020018481526020018373ffffffffffffffffffffffffffffffffffffffff16815260200160001515815260200160008152509050600381908060018154018082558091505090600182039060005260206000209060050201600090919290919091506000820151816000019080519060200190610822929190610ab7565b506020820151816001015560408201518160020160006101000a81548173ffffffffffffffffffffffffffffffffffffffff021916908373ffffffffffffffffffffffffffffffffffffffff16021790555060608201518160020160146101000a81548160ff0219169083151502179055506080820151816004015550505050505050565b60015481565b600154341115156108bd57600080fd5b6001600260003373ffffffffffffffffffffffffffffffffffffffff1673ffffffffffffffffffffffffffffffffffffffff16815260200190815260200160002060006101000a81548160ff021916908315150217905550600460008154809291906001019190505550565b600060038281548110151561093a57fe5b90600052602060002090600502019050600260003373ffffffffffffffffffffffffffffffffffffffff1673ffffffffffffffffffffffffffffffffffffffff16815260200190815260200160002060009054906101000a900460ff1615156109a257600080fd5b8060030160003373ffffffffffffffffffffffffffffffffffffffff1673ffffffffffffffffffffffffffffffffffffffff16815260200190815260200160002060009054906101000a900460ff161515156109fd57600080fd5b60018160030160003373ffffffffffffffffffffffffffffffffffffffff1673ffffffffffffffffffffffffffffffffffffffff16815260200190815260200160002060006101000a81548160ff02191690831515021790555080600401600081548092919060010191905055505050565b60a0604051908101604052806060815260200160008152602001600073ffffffffffffffffffffffffffffffffffffffff168152602001600015158152602001600081525090565b828054600181600116156101000203166002900490600052602060002090601f016020900481019282601f10610af857805160ff1916838001178555610b26565b82800160010185558215610b26579182015b82811115610b25578251825591602001919060010190610b0a565b5b509050610b339190610b37565b5090565b610b5991905b80821115610b55576000816000905550600101610b3d565b5090565b905600a165627a7a72305820d7faa06b4076a497eeba69836e42c440ecafd486298f7fcf31877d277acba3200029a165627a7a7230582051078761550166d46bf2f66ddd48dc55bbcbd41e1a7567ad968613602530f1950029",
  "source": "pragma solidity ^0.4.24;\n\ncontract CampaignFactory{\n    address[] public deployedCampaigns;\n    \n    function createCampaign(uint _minimumContribution) public {\n        address newCampaignAddress = new Campaign(_minimumContribution, msg.sender);\n        deployedCampaigns.push(newCampaignAddress);\n    }\n    \n    function getAllCampaigns() public view returns(address[]){\n        return deployedCampaigns;\n    }\n}\n\n// represents single campaign\ncontract Campaign{\n    struct Request{         // To represent a spending reuest\n        string description;\n        uint amount;\n        address recipient;\n        bool completed;\n        mapping(address => bool) approvals;\n        uint approvalCount;\n    }\n    \n    address public manager;\n    uint public minimumContribution;\n    mapping(address => bool) public approvers;\n    Request[] public requests;\n    uint public approversCount;\n    \n    modifier restricted(){\n        require(msg.sender == manager);\n        _;\n    }\n    \n    constructor(uint _minimumContribution, address _manager) public {\n        minimumContribution = _minimumContribution;\n        manager = _manager;\n    }\n    \n    function contribute() public payable {\n        require(msg.value > minimumContribution);\n        approvers[msg.sender] = true; // sender added to list of approvers\n        approversCount++;\n    }\n    \n    function createRequest(string _description, uint _amount, address _recipient) public restricted {\n        require(_amount <= address(this).balance); // check if value of the request is greater than contract's balance\n        Request memory newRequest = Request({\n            description  : _description,\n            amount       : _amount,\n            recipient    : _recipient,\n            completed    : false,\n            approvalCount: 0\n        });\n        requests.push(newRequest);\n    }\n    \n    function approveRequest(uint reqIndex) public {\n        Request storage request = requests[reqIndex]; // storage pointer to the particular request\n        \n        require(approvers[msg.sender]); // if sender of this txn is an approvers\n        require(!request.approvals[msg.sender]); // if sender of txn has already not voted\n        \n        request.approvals[msg.sender] = true;\n        request.approvalCount++;\n    }\n    \n    function finalizeRequest(uint reqIndex) restricted public {\n        Request storage request = requests[reqIndex];\n        \n        require(request.approvalCount > approversCount/2); // more than half consensus\n        require(!request.completed); // request was not completed previously\n        \n        request.completed = true;\n        request.recipient.transfer(request.amount);\n    }\n    \n    function getSummary() public view returns (uint, uint, uint, uint, address) {\n        return (\n          minimumContribution,\n          address(this).balance,\n          requests.length,\n          approversCount,\n          manager\n        );\n    }\n}",
  "sourcePath": "/home/shivank/Desktop/Blockchain Projects/crowdfund/dapp/contracts/campaign.sol",
  "compiler": {
    "name": "solc",
    "version": "0.4.24+commit.e67f0147.Emscripten.clang"
  },
  "schemaVersion": "2.0.1",
  "updatedAt": "2018-07-12T14:48:07.755Z"
}